{
  "contractName": "Auction",
  "abi": [
    {
      "constant": true,
      "inputs": [],
      "name": "highestPrice",
      "outputs": [
        {
          "name": "",
          "type": "uint256"
        }
      ],
      "payable": false,
      "stateMutability": "view",
      "type": "function"
    },
    {
      "constant": true,
      "inputs": [
        {
          "name": "",
          "type": "address"
        }
      ],
      "name": "bids",
      "outputs": [
        {
          "name": "",
          "type": "uint256"
        }
      ],
      "payable": false,
      "stateMutability": "view",
      "type": "function"
    },
    {
      "constant": true,
      "inputs": [],
      "name": "auctionState",
      "outputs": [
        {
          "name": "",
          "type": "uint8"
        }
      ],
      "payable": false,
      "stateMutability": "view",
      "type": "function"
    },
    {
      "constant": true,
      "inputs": [],
      "name": "highestBidder",
      "outputs": [
        {
          "name": "",
          "type": "address"
        }
      ],
      "payable": false,
      "stateMutability": "view",
      "type": "function"
    },
    {
      "inputs": [
        {
          "name": "_owner",
          "type": "address"
        },
        {
          "name": "_title",
          "type": "string"
        },
        {
          "name": "_startPrice",
          "type": "uint256"
        },
        {
          "name": "_description",
          "type": "string"
        }
      ],
      "payable": false,
      "stateMutability": "nonpayable",
      "type": "constructor"
    },
    {
      "constant": false,
      "inputs": [],
      "name": "placeBid",
      "outputs": [
        {
          "name": "",
          "type": "bool"
        }
      ],
      "payable": true,
      "stateMutability": "payable",
      "type": "function"
    },
    {
      "constant": false,
      "inputs": [],
      "name": "finalizeAuction",
      "outputs": [],
      "payable": false,
      "stateMutability": "nonpayable",
      "type": "function"
    },
    {
      "constant": true,
      "inputs": [],
      "name": "returnContents",
      "outputs": [
        {
          "name": "",
          "type": "string"
        },
        {
          "name": "",
          "type": "uint256"
        },
        {
          "name": "",
          "type": "string"
        },
        {
          "name": "",
          "type": "uint8"
        }
      ],
      "payable": false,
      "stateMutability": "view",
      "type": "function"
    }
  ],
  "bytecode": "0x608060405234801561001057600080fd5b50604051610b62380380610b628339810180604052608081101561003357600080fd5b8101908080519060200190929190805164010000000081111561005557600080fd5b8281019050602081018481111561006b57600080fd5b815185600182028301116401000000008211171561008857600080fd5b50509291906020018051906020019092919080516401000000008111156100ae57600080fd5b828101905060208101848111156100c457600080fd5b81518560018202830111640100000000821117156100e157600080fd5b5050929190505050836000806101000a81548173ffffffffffffffffffffffffffffffffffffffff021916908373ffffffffffffffffffffffffffffffffffffffff160217905550826001908051906020019061013f92919061018b565b5081600281905550806003908051906020019061015d92919061018b565b506001600460006101000a81548160ff0219169083600281111561017d57fe5b021790555050505050610230565b828054600181600116156101000203166002900490600052602060002090601f016020900481019282601f106101cc57805160ff19168380011785556101fa565b828001600101855582156101fa579182015b828111156101f95782518255916020019190600101906101de565b5b509050610207919061020b565b5090565b61022d91905b80821115610229576000816000905550600101610211565b5090565b90565b6109238061023f6000396000f3fe6080604052600436106100705760003560e01c806391f901571161004e57806391f901571461013e578063c8287b5814610195578063ecfc7ecc146102ad578063f77282ab146102cf57610070565b80630e8670e01461007557806362ea82db146100a05780637fb4509914610105575b600080fd5b34801561008157600080fd5b5061008a6102e6565b6040518082815260200191505060405180910390f35b3480156100ac57600080fd5b506100ef600480360360208110156100c357600080fd5b81019080803573ffffffffffffffffffffffffffffffffffffffff1690602001909291905050506102ec565b6040518082815260200191505060405180910390f35b34801561011157600080fd5b5061011a610304565b6040518082600281111561012a57fe5b60ff16815260200191505060405180910390f35b34801561014a57600080fd5b50610153610317565b604051808273ffffffffffffffffffffffffffffffffffffffff1673ffffffffffffffffffffffffffffffffffffffff16815260200191505060405180910390f35b3480156101a157600080fd5b506101aa61033d565b6040518080602001858152602001806020018460028111156101c857fe5b60ff168152602001838103835287818151815260200191508051906020019080838360005b838110156102085780820151818401526020810190506101ed565b50505050905090810190601f1680156102355780820380516001836020036101000a031916815260200191505b50838103825285818151815260200191508051906020019080838360005b8381101561026e578082015181840152602081019050610253565b50505050905090810190601f16801561029b5780820380516001836020036101000a031916815260200191505b50965050505050505060405180910390f35b6102b56104a2565b604051808215151515815260200191505060405180910390f35b3480156102db57600080fd5b506102e4610635565b005b60055481565b60076020528060005260406000206000915090505481565b600460009054906101000a900460ff1681565b600660009054906101000a900473ffffffffffffffffffffffffffffffffffffffff1681565b606060006060600060016002546003600460009054906101000a900460ff16838054600181600116156101000203166002900480601f0160208091040260200160405190810160405280929190818152602001828054600181600116156101000203166002900480156103f15780601f106103c6576101008083540402835291602001916103f1565b820191906000526020600020905b8154815290600101906020018083116103d457829003601f168201915b50505050509350818054600181600116156101000203166002900480601f01602080910402602001604051908101604052809291908181526020018280546001816001161561010002031660029004801561048d5780601f106104625761010080835404028352916020019161048d565b820191906000526020600020905b81548152906001019060200180831161047057829003601f168201915b50505050509150935093509350935090919293565b60008060009054906101000a900473ffffffffffffffffffffffffffffffffffffffff1673ffffffffffffffffffffffffffffffffffffffff163373ffffffffffffffffffffffffffffffffffffffff1614156104fe57600080fd5b6001600281111561050b57fe5b600460009054906101000a900460ff16600281111561052657fe5b1461053057600080fd5b6000341161053d57600080fd5b600061059134600760003373ffffffffffffffffffffffffffffffffffffffff1673ffffffffffffffffffffffffffffffffffffffff168152602001908152602001600020546108dd90919063ffffffff16565b905060055481116105a157600080fd5b80600760003373ffffffffffffffffffffffffffffffffffffffff1673ffffffffffffffffffffffffffffffffffffffff168152602001908152602001600020819055508060058190555033600660006101000a81548173ffffffffffffffffffffffffffffffffffffffff021916908373ffffffffffffffffffffffffffffffffffffffff160217905550600191505090565b6000809054906101000a900473ffffffffffffffffffffffffffffffffffffffff1673ffffffffffffffffffffffffffffffffffffffff163373ffffffffffffffffffffffffffffffffffffffff1614806106cf57506000600760003373ffffffffffffffffffffffffffffffffffffffff1673ffffffffffffffffffffffffffffffffffffffff16815260200190815260200160002054115b6106d857600080fd5b6000806000809054906101000a900473ffffffffffffffffffffffffffffffffffffffff1673ffffffffffffffffffffffffffffffffffffffff163373ffffffffffffffffffffffffffffffffffffffff16141561075e576000809054906101000a900473ffffffffffffffffffffffffffffffffffffffff1691506005549050610829565b600660009054906101000a900473ffffffffffffffffffffffffffffffffffffffff1673ffffffffffffffffffffffffffffffffffffffff163373ffffffffffffffffffffffffffffffffffffffff1614156107e257600660009054906101000a900473ffffffffffffffffffffffffffffffffffffffff16915060009050610828565b339150600760003373ffffffffffffffffffffffffffffffffffffffff1673ffffffffffffffffffffffffffffffffffffffff1681526020019081526020016000205490505b5b6000600760003373ffffffffffffffffffffffffffffffffffffffff1673ffffffffffffffffffffffffffffffffffffffff168152602001908152602001600020819055508173ffffffffffffffffffffffffffffffffffffffff166108fc829081150290604051600060405180830381858888f193505050501580156108b4573d6000803e3d6000fd5b506002600460006101000a81548160ff021916908360028111156108d457fe5b02179055505050565b60008183019050828110156108ee57fe5b8090509291505056fea165627a7a7230582077e1096ac0d906a9b224a7cf76aabb3a7904b6d4d72898b8709955d41a84d91c0029",
  "source": "pragma solidity ^0.5.8;\n\nimport 'zeppelin-solidity/contracts/math/SafeMath.sol';\n\ncontract AuctionBox {\n\n    Auction[] public auctions;\n\n    function createAuction (\n        string memory _title,\n        uint _startPrice,\n        string memory _description\n        ) public{\n        // set the new instance\n        Auction newAuction = new Auction(msg.sender, _title, _startPrice, _description);\n        // push the auction address to auctions array\n        auctions.push(newAuction);\n    }\n\n    function returnAllAuctions() public view returns(Auction[] memory){\n        return auctions;\n    }\n}\n\ncontract Auction {\n\n    using SafeMath for uint256;\n\n    address payable private owner;\n    string title;\n    uint startPrice;\n    string description;\n\n    enum State{Default, Running, Finalized}\n    State public auctionState;\n\n    uint public highestPrice;\n    address payable public highestBidder;\n    mapping(address => uint) public bids;\n\n    /** @dev constructor to creat an auction\n      * @param _owner who call createAuction() in AuctionBox contract\n      * @param _title the title of the auction\n      * @param _startPrice the start price of the auction\n      * @param _description the description of the auction\n      */\n    constructor(\n        address payable _owner,\n        string memory _title,\n        uint _startPrice,\n        string memory _description\n\n        ) public {\n        // initialize auction\n        owner = _owner;\n        title = _title;\n        startPrice = _startPrice;\n        description = _description;\n        auctionState = State.Running;\n    }\n\n    modifier notOwner(){\n        require(msg.sender != owner);\n        _;\n    }\n\n    /** @dev Function to place a bid\n      * @return true\n      */\n    function placeBid() public payable notOwner returns(bool) {\n        require(auctionState == State.Running);\n        require(msg.value > 0);\n        // update the current bid\n        // uint currentBid = bids[msg.sender] + msg.value;\n        uint currentBid = bids[msg.sender].add(msg.value);\n        require(currentBid > highestPrice);\n        // set the currentBid links with msg.sender\n        bids[msg.sender] = currentBid;\n        // update the highest price\n        highestPrice = currentBid;\n        highestBidder = msg.sender;\n\n        return true;\n    }\n\n    function finalizeAuction() public{\n        //the owner and bidders can finalize the auction.\n        require(msg.sender == owner || bids[msg.sender] > 0);\n\n        address payable recipiant;\n        uint value;\n\n        // owner can get highestPrice\n        if(msg.sender == owner){\n            recipiant = owner;\n            value = highestPrice;\n        }\n        // highestBidder can get no money\n        else if (msg.sender == highestBidder){\n            recipiant = highestBidder;\n            value = 0;\n        }\n        // Other bidders can get back the money\n        else {\n            recipiant = msg.sender;\n            value = bids[msg.sender];\n        }\n        // initialize the value\n        bids[msg.sender] = 0;\n        recipiant.transfer(value);\n        auctionState = State.Finalized;\n    }\n\n    /** @dev Function to return the contents od the auction\n      * @return the title of the auction\n      * @return the start price of the auction\n      * @return the description of the auction\n      * @return the state of the auction\n      */\n    function returnContents() public view returns(\n        string memory,\n        uint,\n        string memory,\n        State\n        ) {\n        return (\n            title,\n            startPrice,\n            description,\n            auctionState\n        );\n    }\n}",
  "sourcePath": "/Users/mac/Documents/GitHub/artauctiondapp/contracts/AuctionHouse.sol",
  "compiler": {
    "name": "solc",
    "version": "0.5.8+commit.23d335f2.Emscripten.clang"
  },
  "schemaVersion": "3.0.11",
  "updatedAt": "2020-02-14T22:18:20.495Z",
  "devdoc": {
    "methods": {
      "constructor": {
        "details": "constructor to creat an auction",
        "params": {
          "_description": "the description of the auction",
          "_owner": "who call createAuction() in AuctionBox contract",
          "_startPrice": "the start price of the auction",
          "_title": "the title of the auction"
        }
      },
      "placeBid()": {
        "details": "Function to place a bid",
        "return": "true"
      },
      "returnContents()": {
        "details": "Function to return the contents od the auction",
        "return": "the title of the auctionthe start price of the auctionthe description of the auctionthe state of the auction"
      }
    }
  },
  "userdoc": {
    "methods": {}
  }
}